{
  "_format": "hh-sol-artifact-1",
  "contractName": "ERC721Expert",
  "sourceName": "contracts/gov/ERC721/ERC721Expert.sol",
  "abi": [
    {
      "anonymous": false,
      "inputs": [
        {
          "indexed": true,
          "internalType": "address",
          "name": "owner",
          "type": "address"
        },
        {
          "indexed": true,
          "internalType": "address",
          "name": "approved",
          "type": "address"
        },
        {
          "indexed": true,
          "internalType": "uint256",
          "name": "tokenId",
          "type": "uint256"
        }
      ],
      "name": "Approval",
      "type": "event"
    },
    {
      "anonymous": false,
      "inputs": [
        {
          "indexed": true,
          "internalType": "address",
          "name": "owner",
          "type": "address"
        },
        {
          "indexed": true,
          "internalType": "address",
          "name": "operator",
          "type": "address"
        },
        {
          "indexed": false,
          "internalType": "bool",
          "name": "approved",
          "type": "bool"
        }
      ],
      "name": "ApprovalForAll",
      "type": "event"
    },
    {
      "anonymous": false,
      "inputs": [
        {
          "indexed": false,
          "internalType": "uint8",
          "name": "version",
          "type": "uint8"
        }
      ],
      "name": "Initialized",
      "type": "event"
    },
    {
      "anonymous": false,
      "inputs": [
        {
          "indexed": true,
          "internalType": "address",
          "name": "from",
          "type": "address"
        },
        {
          "indexed": true,
          "internalType": "address",
          "name": "to",
          "type": "address"
        },
        {
          "indexed": true,
          "internalType": "uint256",
          "name": "tokenId",
          "type": "uint256"
        },
        {
          "indexed": false,
          "internalType": "enum IERC721Expert.BurnAuth",
          "name": "burnAuth",
          "type": "uint8"
        }
      ],
      "name": "Issued",
      "type": "event"
    },
    {
      "anonymous": false,
      "inputs": [
        {
          "indexed": true,
          "internalType": "address",
          "name": "previousOwner",
          "type": "address"
        },
        {
          "indexed": true,
          "internalType": "address",
          "name": "newOwner",
          "type": "address"
        }
      ],
      "name": "OwnershipTransferred",
      "type": "event"
    },
    {
      "anonymous": false,
      "inputs": [
        {
          "indexed": true,
          "internalType": "uint256",
          "name": "tokenId",
          "type": "uint256"
        },
        {
          "indexed": false,
          "internalType": "string[]",
          "name": "tags",
          "type": "string[]"
        }
      ],
      "name": "TagsAdded",
      "type": "event"
    },
    {
      "anonymous": false,
      "inputs": [
        {
          "indexed": true,
          "internalType": "address",
          "name": "from",
          "type": "address"
        },
        {
          "indexed": true,
          "internalType": "address",
          "name": "to",
          "type": "address"
        },
        {
          "indexed": true,
          "internalType": "uint256",
          "name": "tokenId",
          "type": "uint256"
        }
      ],
      "name": "Transfer",
      "type": "event"
    },
    {
      "inputs": [
        {
          "internalType": "string",
          "name": "name",
          "type": "string"
        },
        {
          "internalType": "string",
          "name": "symbol",
          "type": "string"
        }
      ],
      "name": "__ERC721Expert_init",
      "outputs": [],
      "stateMutability": "nonpayable",
      "type": "function"
    },
    {
      "inputs": [
        {
          "internalType": "address",
          "name": "to",
          "type": "address"
        },
        {
          "internalType": "uint256",
          "name": "tokenId",
          "type": "uint256"
        }
      ],
      "name": "approve",
      "outputs": [],
      "stateMutability": "nonpayable",
      "type": "function"
    },
    {
      "inputs": [
        {
          "internalType": "address",
          "name": "owner",
          "type": "address"
        }
      ],
      "name": "balanceOf",
      "outputs": [
        {
          "internalType": "uint256",
          "name": "",
          "type": "uint256"
        }
      ],
      "stateMutability": "view",
      "type": "function"
    },
    {
      "inputs": [
        {
          "internalType": "uint256",
          "name": "tokenId",
          "type": "uint256"
        }
      ],
      "name": "burn",
      "outputs": [],
      "stateMutability": "nonpayable",
      "type": "function"
    },
    {
      "inputs": [
        {
          "internalType": "uint256",
          "name": "tokenId",
          "type": "uint256"
        }
      ],
      "name": "burnAuth",
      "outputs": [
        {
          "internalType": "enum IERC721Expert.BurnAuth",
          "name": "",
          "type": "uint8"
        }
      ],
      "stateMutability": "view",
      "type": "function"
    },
    {
      "inputs": [
        {
          "internalType": "uint256",
          "name": "tokenId",
          "type": "uint256"
        }
      ],
      "name": "getApproved",
      "outputs": [
        {
          "internalType": "address",
          "name": "",
          "type": "address"
        }
      ],
      "stateMutability": "view",
      "type": "function"
    },
    {
      "inputs": [
        {
          "internalType": "address",
          "name": "expert",
          "type": "address"
        }
      ],
      "name": "getIdByExpert",
      "outputs": [
        {
          "internalType": "uint256",
          "name": "",
          "type": "uint256"
        }
      ],
      "stateMutability": "view",
      "type": "function"
    },
    {
      "inputs": [
        {
          "internalType": "uint256",
          "name": "tokenId",
          "type": "uint256"
        }
      ],
      "name": "getTags",
      "outputs": [
        {
          "internalType": "string[]",
          "name": "",
          "type": "string[]"
        }
      ],
      "stateMutability": "view",
      "type": "function"
    },
    {
      "inputs": [
        {
          "internalType": "address",
          "name": "owner",
          "type": "address"
        },
        {
          "internalType": "address",
          "name": "operator",
          "type": "address"
        }
      ],
      "name": "isApprovedForAll",
      "outputs": [
        {
          "internalType": "bool",
          "name": "",
          "type": "bool"
        }
      ],
      "stateMutability": "view",
      "type": "function"
    },
    {
      "inputs": [
        {
          "internalType": "address",
          "name": "expert",
          "type": "address"
        }
      ],
      "name": "isExpert",
      "outputs": [
        {
          "internalType": "bool",
          "name": "",
          "type": "bool"
        }
      ],
      "stateMutability": "view",
      "type": "function"
    },
    {
      "inputs": [
        {
          "internalType": "address",
          "name": "to",
          "type": "address"
        },
        {
          "internalType": "string",
          "name": "uri_",
          "type": "string"
        }
      ],
      "name": "mint",
      "outputs": [
        {
          "internalType": "uint256",
          "name": "tokenId",
          "type": "uint256"
        }
      ],
      "stateMutability": "nonpayable",
      "type": "function"
    },
    {
      "inputs": [],
      "name": "name",
      "outputs": [
        {
          "internalType": "string",
          "name": "",
          "type": "string"
        }
      ],
      "stateMutability": "view",
      "type": "function"
    },
    {
      "inputs": [],
      "name": "owner",
      "outputs": [
        {
          "internalType": "address",
          "name": "",
          "type": "address"
        }
      ],
      "stateMutability": "view",
      "type": "function"
    },
    {
      "inputs": [
        {
          "internalType": "uint256",
          "name": "tokenId",
          "type": "uint256"
        }
      ],
      "name": "ownerOf",
      "outputs": [
        {
          "internalType": "address",
          "name": "",
          "type": "address"
        }
      ],
      "stateMutability": "view",
      "type": "function"
    },
    {
      "inputs": [],
      "name": "renounceOwnership",
      "outputs": [],
      "stateMutability": "nonpayable",
      "type": "function"
    },
    {
      "inputs": [
        {
          "internalType": "address",
          "name": "from",
          "type": "address"
        },
        {
          "internalType": "address",
          "name": "to",
          "type": "address"
        },
        {
          "internalType": "uint256",
          "name": "tokenId",
          "type": "uint256"
        }
      ],
      "name": "safeTransferFrom",
      "outputs": [],
      "stateMutability": "nonpayable",
      "type": "function"
    },
    {
      "inputs": [
        {
          "internalType": "address",
          "name": "from",
          "type": "address"
        },
        {
          "internalType": "address",
          "name": "to",
          "type": "address"
        },
        {
          "internalType": "uint256",
          "name": "tokenId",
          "type": "uint256"
        },
        {
          "internalType": "bytes",
          "name": "data",
          "type": "bytes"
        }
      ],
      "name": "safeTransferFrom",
      "outputs": [],
      "stateMutability": "nonpayable",
      "type": "function"
    },
    {
      "inputs": [
        {
          "internalType": "address",
          "name": "operator",
          "type": "address"
        },
        {
          "internalType": "bool",
          "name": "approved",
          "type": "bool"
        }
      ],
      "name": "setApprovalForAll",
      "outputs": [],
      "stateMutability": "nonpayable",
      "type": "function"
    },
    {
      "inputs": [
        {
          "internalType": "uint256",
          "name": "tokenId",
          "type": "uint256"
        },
        {
          "internalType": "string[]",
          "name": "tags",
          "type": "string[]"
        }
      ],
      "name": "setTags",
      "outputs": [],
      "stateMutability": "nonpayable",
      "type": "function"
    },
    {
      "inputs": [
        {
          "internalType": "uint256",
          "name": "tokenId",
          "type": "uint256"
        },
        {
          "internalType": "string",
          "name": "uri_",
          "type": "string"
        }
      ],
      "name": "setTokenURI",
      "outputs": [],
      "stateMutability": "nonpayable",
      "type": "function"
    },
    {
      "inputs": [
        {
          "internalType": "bytes4",
          "name": "interfaceId",
          "type": "bytes4"
        }
      ],
      "name": "supportsInterface",
      "outputs": [
        {
          "internalType": "bool",
          "name": "",
          "type": "bool"
        }
      ],
      "stateMutability": "view",
      "type": "function"
    },
    {
      "inputs": [],
      "name": "symbol",
      "outputs": [
        {
          "internalType": "string",
          "name": "",
          "type": "string"
        }
      ],
      "stateMutability": "view",
      "type": "function"
    },
    {
      "inputs": [
        {
          "internalType": "uint256",
          "name": "tokenId",
          "type": "uint256"
        }
      ],
      "name": "tokenURI",
      "outputs": [
        {
          "internalType": "string",
          "name": "",
          "type": "string"
        }
      ],
      "stateMutability": "view",
      "type": "function"
    },
    {
      "inputs": [
        {
          "internalType": "address",
          "name": "from",
          "type": "address"
        },
        {
          "internalType": "address",
          "name": "to",
          "type": "address"
        },
        {
          "internalType": "uint256",
          "name": "tokenId",
          "type": "uint256"
        }
      ],
      "name": "transferFrom",
      "outputs": [],
      "stateMutability": "nonpayable",
      "type": "function"
    },
    {
      "inputs": [
        {
          "internalType": "address",
          "name": "newOwner",
          "type": "address"
        }
      ],
      "name": "transferOwnership",
      "outputs": [],
      "stateMutability": "nonpayable",
      "type": "function"
    }
  ],
  "bytecode": "0x608060405234801561001057600080fd5b5061242b806100206000396000f3fe608060405234801561001057600080fd5b50600436106101735760003560e01c80636352211e116100de57806395d89b4111610097578063c87b56dd11610071578063c87b56dd14610348578063d0def5211461035b578063e985e9c51461036e578063f2fde38b146103aa57600080fd5b806395d89b411461031a578063a22cb46514610322578063b88d4fde1461033557600080fd5b80636352211e146102b557806370a08231146102c8578063715018a6146102db57806376c535ae146102e35780637a6e9514146102f65780638da5cb5b1461030957600080fd5b806323b872dd1161013057806323b872dd1461022857806329d29cb31461023b5780633cca1f2c1461025b57806342842e0e1461026e57806342966c68146102815780636047fb891461029457600080fd5b806301ffc9a7146101785780630489b56f146101a057806306fdde03146101c0578063081812fc146101d5578063095ea7b314610200578063162094c414610215575b600080fd5b61018b610186366004611c75565b6103bd565b60405190151581526020015b60405180910390f35b6101b36101ae366004611c92565b610403565b6040516101979190611cab565b6101c861048d565b6040516101979190611d2b565b6101e86101e3366004611c92565b61051f565b6040516001600160a01b039091168152602001610197565b61021361020e366004611d5a565b610546565b005b610213610223366004611dcd565b61065c565b610213610236366004611e19565b6106a4565b61024e610249366004611c92565b6106d5565b6040516101979190611e55565b610213610269366004611eb7565b6107c1565b61021361027c366004611e19565b610949565b61021361028f366004611c92565b610964565b6102a76102a2366004611f23565b610a23565b604051908152602001610197565b6101e86102c3366004611c92565b610aa2565b6102a76102d6366004611f23565b610b02565b610213610b88565b61018b6102f1366004611f23565b610b9c565b610213610304366004611fdd565b610bb0565b60c9546001600160a01b03166101e8565b6101c8610cd7565b6102136103303660046120c2565b610ce6565b6102136103433660046120fe565b610cf5565b6101c8610356366004611c92565b610d2d565b6102a761036936600461217a565b610e3e565b61018b61037c3660046121b4565b6001600160a01b039182166000908152606a6020908152604080832093909416825291909152205460ff1690565b6102136103b8366004611f23565b610f85565b60006001600160e01b03198216630489b56f60e01b14806103ee57506001600160e01b0319821663966376c560e01b145b806103fd57506103fd82610ffb565b92915050565b600061040e8261104b565b6104855760405162461bcd60e51b815260206004820152603a60248201527f4552433732314578706572743a2043616e6e6f742066696e64204275726e204160448201527f75746820666f72206e6f6e206578697374616e7420626164676500000000000060648201526084015b60405180910390fd5b506001919050565b60606065805461049c906121e7565b80601f01602080910402602001604051908101604052809291908181526020018280546104c8906121e7565b80156105155780601f106104ea57610100808354040283529160200191610515565b820191906000526020600020905b8154815290600101906020018083116104f857829003601f168201915b5050505050905090565b600061052a82611068565b506000908152606960205260409020546001600160a01b031690565b600061055182610aa2565b9050806001600160a01b0316836001600160a01b031614156105bf5760405162461bcd60e51b815260206004820152602160248201527f4552433732313a20617070726f76616c20746f2063757272656e74206f776e656044820152603960f91b606482015260840161047c565b336001600160a01b03821614806105db57506105db813361037c565b61064d5760405162461bcd60e51b815260206004820152603d60248201527f4552433732313a20617070726f76652063616c6c6572206973206e6f7420746f60448201527f6b656e206f776e6572206f7220617070726f76656420666f7220616c6c000000606482015260840161047c565b61065783836110b8565b505050565b610664611126565b6106578383838080601f01602080910402602001604051908101604052809392919081815260200183838082843760009201919091525061118092505050565b6106ae338261120b565b6106ca5760405162461bcd60e51b815260040161047c90612222565b610657838383611289565b606060fd6000838152602001908152602001600020805480602002602001604051908101604052809291908181526020016000905b828210156107b6578382906000526020600020018054610729906121e7565b80601f0160208091040260200160405190810160405280929190818152602001828054610755906121e7565b80156107a25780601f10610777576101008083540402835291602001916107a2565b820191906000526020600020905b81548152906001019060200180831161078557829003601f168201915b50505050508152602001906001019061070a565b505050509050919050565b600054610100900460ff16158080156107e15750600054600160ff909116105b806107fb5750303b1580156107fb575060005460ff166001145b61085e5760405162461bcd60e51b815260206004820152602e60248201527f496e697469616c697a61626c653a20636f6e747261637420697320616c72656160448201526d191e481a5b9a5d1a585b1a5e995960921b606482015260840161047c565b6000805460ff191660011790558015610881576000805461ff0019166101001790555b6108896112ea565b6108fc85858080601f01602080910402602001604051908101604052809392919081815260200183838082843760009201919091525050604080516020601f8901819004810282018101909252878152925087915086908190840183828082843760009201919091525061131992505050565b8015610942576000805461ff0019169055604051600181527f7f26b83ff96e1f2b6a682f133852f6798a09c465da95921460cefb38474024989060200160405180910390a15b5050505050565b61065783838360405180602001604052806000815250610cf5565b61096c611126565b6109758161104b565b6109d65760405162461bcd60e51b815260206004820152602c60248201527f4552433732314578706572743a2043616e6e6f74206275726e206e6f6e2d657860448201526b697374656e7420626164676560a01b606482015260840161047c565b60fc60006109e383610aa2565b6001600160a01b031681526020808201929092526040908101600090812081905583815260fd9092528120610a1791611af8565b610a208161134a565b50565b6000610a2e82610b9c565b610a865760405162461bcd60e51b815260206004820152602360248201527f4552433732314578706572743a2055736572206973206e6f7420616e20657870604482015262195c9d60ea1b606482015260840161047c565b506001600160a01b0316600090815260fc602052604090205490565b6000818152606760205260408120546001600160a01b0316806103fd5760405162461bcd60e51b8152602060048201526018602482015277115490cdcc8c4e881a5b9d985b1a59081d1bdad95b88125160421b604482015260640161047c565b60006001600160a01b038216610b6c5760405162461bcd60e51b815260206004820152602960248201527f4552433732313a2061646472657373207a65726f206973206e6f7420612076616044820152683634b21037bbb732b960b91b606482015260840161047c565b506001600160a01b031660009081526068602052604090205490565b610b90611126565b610b9a600061138a565b565b6000610ba782610b02565b60011492915050565b610bb8611126565b610bc18261104b565b610c295760405162461bcd60e51b815260206004820152603360248201527f4552433732314578706572743a2043616e6e6f7420736574207461677320746f604482015272206e6f6e2d6578697374656e7420626164676560681b606482015260840161047c565b600381511115610c7b5760405162461bcd60e51b815260206004820152601b60248201527f4552433732314578706572743a20546f6f206d75636820746167730000000000604482015260640161047c565b600082815260fd602090815260409091208251610c9a92840190611b16565b50817fd7996413e860167fcb318719e1b39a370926f403d1af94aa60d7b2df1869e34582604051610ccb9190611e55565b60405180910390a25050565b60606066805461049c906121e7565b610cf13383836113dc565b5050565b610cff338361120b565b610d1b5760405162461bcd60e51b815260040161047c90612222565b610d27848484846114ab565b50505050565b6060610d3882611068565b60008281526097602052604081208054610d51906121e7565b80601f0160208091040260200160405190810160405280929190818152602001828054610d7d906121e7565b8015610dca5780601f10610d9f57610100808354040283529160200191610dca565b820191906000526020600020905b815481529060010190602001808311610dad57829003601f168201915b505050505090506000610de860408051602081019091526000815290565b9050805160001415610dfb575092915050565b815115610e2d578082604051602001610e1592919061226f565b60405160208183030381529060405292505050919050565b610e36846114de565b949350505050565b6000610e48611126565b610e5184610b9c565b15610ebb5760405162461bcd60e51b815260206004820152603460248201527f4552433732314578706572743a2043616e6e6f74206d696e74206d6f7265207460448201527368616e206f6e652065787065727420626164676560601b606482015260840161047c565b60fb60008154610eca906122b4565b91829055509050610edb8482611552565b610f1b8184848080601f01602080910402602001604051908101604052809392919081815260200183838082843760009201919091525061118092505050565b6001600160a01b03848116600081815260fc6020526040902083905560c9548392166001600160a01b03167f135ffb3383e06280e062ac5095bbf8faa98517161e596a2536bd98a9a8b64a886001604051610f769190611cab565b60405180910390a49392505050565b610f8d611126565b6001600160a01b038116610ff25760405162461bcd60e51b815260206004820152602660248201527f4f776e61626c653a206e6577206f776e657220697320746865207a65726f206160448201526564647265737360d01b606482015260840161047c565b610a208161138a565b60006001600160e01b031982166380ac58cd60e01b148061102c57506001600160e01b03198216635b5e139f60e01b145b806103fd57506301ffc9a760e01b6001600160e01b03198316146103fd565b6000908152606760205260409020546001600160a01b0316151590565b6110718161104b565b610a205760405162461bcd60e51b8152602060048201526018602482015277115490cdcc8c4e881a5b9d985b1a59081d1bdad95b88125160421b604482015260640161047c565b600081815260696020526040902080546001600160a01b0319166001600160a01b03841690811790915581906110ed82610aa2565b6001600160a01b03167f8c5be1e5ebec7d5bd14f71427d1e84f3dd0314c0f7b2291e5b200ac8c7c3b92560405160405180910390a45050565b60c9546001600160a01b03163314610b9a5760405162461bcd60e51b815260206004820181905260248201527f4f776e61626c653a2063616c6c6572206973206e6f7420746865206f776e6572604482015260640161047c565b6111898261104b565b6111ec5760405162461bcd60e51b815260206004820152602e60248201527f45524337323155524953746f726167653a2055524920736574206f66206e6f6e60448201526d32bc34b9ba32b73a103a37b5b2b760911b606482015260840161047c565b6000828152609760209081526040909120825161065792840190611b73565b60008061121783610aa2565b9050806001600160a01b0316846001600160a01b0316148061125e57506001600160a01b038082166000908152606a602090815260408083209388168352929052205460ff165b80610e365750836001600160a01b03166112778461051f565b6001600160a01b031614949350505050565b60405162461bcd60e51b815260206004820152603060248201527f4552433732314578706572743a204578706572742062616467652063616e6e6f60448201526f1d081899481d1c985b9cd9995c9c995960821b606482015260840161047c565b600054610100900460ff166113115760405162461bcd60e51b815260040161047c906122cf565b610b9a6116cd565b600054610100900460ff166113405760405162461bcd60e51b815260040161047c906122cf565b610cf182826116fd565b6113538161174b565b6000818152609760205260409020805461136c906121e7565b159050610a20576000818152609760205260408120610a2091611bf3565b60c980546001600160a01b038381166001600160a01b0319831681179093556040519116919082907f8be0079c531659141344cd1fd0a4f28419497f9722a3daafe3b4186f6b6457e090600090a35050565b816001600160a01b0316836001600160a01b0316141561143e5760405162461bcd60e51b815260206004820152601960248201527f4552433732313a20617070726f766520746f2063616c6c657200000000000000604482015260640161047c565b6001600160a01b038381166000818152606a6020908152604080832094871680845294825291829020805460ff191686151590811790915591519182527f17307eab39ab6107e8899845ad3d59bd9653f200f220920489ca2b5937696c31910160405180910390a3505050565b6114b6848484611289565b6114c2848484846117ee565b610d275760405162461bcd60e51b815260040161047c9061231a565b60606114e982611068565b600061150060408051602081019091526000815290565b90506000815111611520576040518060200160405280600081525061154b565b8061152a846118fb565b60405160200161153b92919061226f565b6040516020818303038152906040525b9392505050565b6001600160a01b0382166115a85760405162461bcd60e51b815260206004820181905260248201527f4552433732313a206d696e7420746f20746865207a65726f2061646472657373604482015260640161047c565b6115b18161104b565b156115fe5760405162461bcd60e51b815260206004820152601c60248201527f4552433732313a20746f6b656e20616c7265616479206d696e74656400000000604482015260640161047c565b61160c600083836001611998565b6116158161104b565b156116625760405162461bcd60e51b815260206004820152601c60248201527f4552433732313a20746f6b656e20616c7265616479206d696e74656400000000604482015260640161047c565b6001600160a01b038216600081815260686020908152604080832080546001019055848352606790915280822080546001600160a01b0319168417905551839291907fddf252ad1be2c89b69c2b068fc378daa952ba7f163c4a11628f55a4df523b3ef908290a45050565b600054610100900460ff166116f45760405162461bcd60e51b815260040161047c906122cf565b610b9a3361138a565b600054610100900460ff166117245760405162461bcd60e51b815260040161047c906122cf565b8151611737906065906020850190611b73565b508051610657906066906020840190611b73565b600061175682610aa2565b9050611766816000846001611998565b61176f82610aa2565b600083815260696020908152604080832080546001600160a01b03199081169091556001600160a01b0385168085526068845282852080546000190190558785526067909352818420805490911690555192935084927fddf252ad1be2c89b69c2b068fc378daa952ba7f163c4a11628f55a4df523b3ef908390a45050565b60006001600160a01b0384163b156118f057604051630a85bd0160e11b81526001600160a01b0385169063150b7a029061183290339089908890889060040161236c565b602060405180830381600087803b15801561184c57600080fd5b505af192505050801561187c575060408051601f3d908101601f19168201909252611879918101906123a9565b60015b6118d6573d8080156118aa576040519150601f19603f3d011682016040523d82523d6000602084013e6118af565b606091505b5080516118ce5760405162461bcd60e51b815260040161047c9061231a565b805181602001fd5b6001600160e01b031916630a85bd0160e11b149050610e36565b506001949350505050565b6060600061190883611a20565b600101905060008167ffffffffffffffff81111561192857611928611f3e565b6040519080825280601f01601f191660200182016040528015611952576020820181803683370190505b5090508181016020015b600019016f181899199a1a9b1b9c1cb0b131b232b360811b600a86061a8153600a850494508461198b57611990565b61195c565b509392505050565b6001811115610d27576001600160a01b038416156119de576001600160a01b038416600090815260686020526040812080548392906119d89084906123c6565b90915550505b6001600160a01b03831615610d27576001600160a01b03831660009081526068602052604081208054839290611a159084906123dd565b909155505050505050565b60008072184f03e93ff9f4daa797ed6e38ed64bf6a1f0160401b8310611a5f5772184f03e93ff9f4daa797ed6e38ed64bf6a1f0160401b830492506040015b6d04ee2d6d415b85acef81000000008310611a8b576d04ee2d6d415b85acef8100000000830492506020015b662386f26fc100008310611aa957662386f26fc10000830492506010015b6305f5e1008310611ac1576305f5e100830492506008015b6127108310611ad557612710830492506004015b60648310611ae7576064830492506002015b600a83106103fd5760010192915050565b5080546000825590600052602060002090810190610a209190611c2d565b828054828255906000526020600020908101928215611b63579160200282015b82811115611b635782518051611b53918491602090910190611b73565b5091602001919060010190611b36565b50611b6f929150611c2d565b5090565b828054611b7f906121e7565b90600052602060002090601f016020900481019282611ba15760008555611be7565b82601f10611bba57805160ff1916838001178555611be7565b82800160010185558215611be7579182015b82811115611be7578251825591602001919060010190611bcc565b50611b6f929150611c4a565b508054611bff906121e7565b6000825580601f10611c0f575050565b601f016020900490600052602060002090810190610a209190611c4a565b80821115611b6f576000611c418282611bf3565b50600101611c2d565b5b80821115611b6f5760008155600101611c4b565b6001600160e01b031981168114610a2057600080fd5b600060208284031215611c8757600080fd5b813561154b81611c5f565b600060208284031215611ca457600080fd5b5035919050565b6020810160048310611ccd57634e487b7160e01b600052602160045260246000fd5b91905290565b60005b83811015611cee578181015183820152602001611cd6565b83811115610d275750506000910152565b60008151808452611d17816020860160208601611cd3565b601f01601f19169290920160200192915050565b60208152600061154b6020830184611cff565b80356001600160a01b0381168114611d5557600080fd5b919050565b60008060408385031215611d6d57600080fd5b611d7683611d3e565b946020939093013593505050565b60008083601f840112611d9657600080fd5b50813567ffffffffffffffff811115611dae57600080fd5b602083019150836020828501011115611dc657600080fd5b9250929050565b600080600060408486031215611de257600080fd5b83359250602084013567ffffffffffffffff811115611e0057600080fd5b611e0c86828701611d84565b9497909650939450505050565b600080600060608486031215611e2e57600080fd5b611e3784611d3e565b9250611e4560208501611d3e565b9150604084013590509250925092565b6000602080830181845280855180835260408601915060408160051b870101925083870160005b82811015611eaa57603f19888603018452611e98858351611cff565b94509285019290850190600101611e7c565b5092979650505050505050565b60008060008060408587031215611ecd57600080fd5b843567ffffffffffffffff80821115611ee557600080fd5b611ef188838901611d84565b90965094506020870135915080821115611f0a57600080fd5b50611f1787828801611d84565b95989497509550505050565b600060208284031215611f3557600080fd5b61154b82611d3e565b634e487b7160e01b600052604160045260246000fd5b604051601f8201601f1916810167ffffffffffffffff81118282101715611f7d57611f7d611f3e565b604052919050565b600067ffffffffffffffff831115611f9f57611f9f611f3e565b611fb2601f8401601f1916602001611f54565b9050828152838383011115611fc657600080fd5b828260208301376000602084830101529392505050565b6000806040808486031215611ff157600080fd5b8335925060208085013567ffffffffffffffff8082111561201157600080fd5b818701915087601f83011261202557600080fd5b81358181111561203757612037611f3e565b8060051b612046858201611f54565b918252838101850191858101908b84111561206057600080fd5b86860192505b838310156120b05782358581111561207e5760008081fd5b8601603f81018d136120905760008081fd5b6120a08d898301358b8401611f85565b8352509186019190860190612066565b80985050505050505050509250929050565b600080604083850312156120d557600080fd5b6120de83611d3e565b9150602083013580151581146120f357600080fd5b809150509250929050565b6000806000806080858703121561211457600080fd5b61211d85611d3e565b935061212b60208601611d3e565b925060408501359150606085013567ffffffffffffffff81111561214e57600080fd5b8501601f8101871361215f57600080fd5b61216e87823560208401611f85565b91505092959194509250565b60008060006040848603121561218f57600080fd5b61219884611d3e565b9250602084013567ffffffffffffffff811115611e0057600080fd5b600080604083850312156121c757600080fd5b6121d083611d3e565b91506121de60208401611d3e565b90509250929050565b600181811c908216806121fb57607f821691505b6020821081141561221c57634e487b7160e01b600052602260045260246000fd5b50919050565b6020808252602d908201527f4552433732313a2063616c6c6572206973206e6f7420746f6b656e206f776e6560408201526c1c881bdc88185c1c1c9bdd9959609a1b606082015260800190565b60008351612281818460208801611cd3565b835190830190612295818360208801611cd3565b01949350505050565b634e487b7160e01b600052601160045260246000fd5b60006000198214156122c8576122c861229e565b5060010190565b6020808252602b908201527f496e697469616c697a61626c653a20636f6e7472616374206973206e6f74206960408201526a6e697469616c697a696e6760a81b606082015260800190565b60208082526032908201527f4552433732313a207472616e7366657220746f206e6f6e20455243373231526560408201527131b2b4bb32b91034b6b83632b6b2b73a32b960711b606082015260800190565b6001600160a01b038581168252841660208201526040810183905260806060820181905260009061239f90830184611cff565b9695505050505050565b6000602082840312156123bb57600080fd5b815161154b81611c5f565b6000828210156123d8576123d861229e565b500390565b600082198211156123f0576123f061229e565b50019056fea264697066735822122027f94d7fa347a28fdcfa9fad3aa9022ea66ded9e185638b350da2701b8d28b3864736f6c63430008090033",
  "linkReferences": {},
  "deployedLinkReferences": {}
}